:020000040800F2
:10000000008001201D230008F1200008F7200008CF
:10001000FD2000080321000809210008000000005D
:100020000000000000000000000000000F21000898
:100030001D210008000000002B21000839210008C4
:100040006D2300086D2300086D2300086D23000850
:100050006D2300086D2300086D2300086D23000840
:100060006D2300086D2300086D2300086D23000830
:100070006D2300086D2300086D2300086D23000820
:10008000452100086D2300086D2300086D2300083A
:100090006D2300086D2300086D2300086D23000800
:1000A0006D2300086D2300086D2300086D230008F0
:1000B0006D2300086D2300086D2300086D230008E0
:1000C0006D2300086D2300086D2300086D230008D0
:1000D0006D2300086D230008592100086D230008D6
:1000E0006D2300086D2300086D2300086D230008B0
:1000F0006D2300086D2300086D2300086D230008A0
:100100006D2300086D2300086D2300086D2300088F
:100110006D2300086D2300086D2300086D2300087F
:100120006D2300086D2300086D2300086D2300086F
:100130006D2300086D2300086D2300086D2300085F
:100140006D2300086D2300086D2300086D2300084F
:100150006D2300086D2300086D2300086D2300083F
:100160006D2300086D2300086D2300086D2300082F
:100170006D2300086D2300086D23000800000000B7
:080180006D2300086D23000847
:1001900010B5054C237833B9044B13B10448AFF3C1
:1001A00000800123237010BDF80100200000000032
:1001B00068A8000808B5034B1BB103490348AFF317
:1001C000008008BD00000000FC01002068A80008B5
:1001D000034613F8012B002AFBD1181A0138704787
:1001E00001F0FF01102A2BDB10F0070F08D010F8E8
:1001F000013B013A8B422DD010F0070F42B3F6D1EC
:10020000F0B441EA012141EA014122F007047FF004
:1002100000070023F0E80256083C85EA010586EA5B
:10022000010685FA47F5A3FA87F586FA47F6A5FA97
:1002300087F68EB9EED1F0BC01F0FF0102F00702A3
:1002400032B110F8013B013A83EA010313B1F8D14E
:100250000020704701387047002D06BF354603382F
:10026000073815F0010F07D1013015F4807F02BF68
:10027000013015F4C03F0130F0BC0138704700BFB9
:1002800081F0004102E000BF83F0004330B54FEA47
:1002900041044FEA430594EA050F08BF90EA020FB4
:1002A0001FBF54EA000C55EA020C7FEA645C7FEA47
:1002B000655C00F0E2804FEA5454D4EB5555B8BF6A
:1002C0006D420CDD2C4480EA020281EA030382EADB
:1002D000000083EA010180EA020281EA0303362D6D
:1002E00088BF30BD11F0004F4FEA01314FF4801C40
:1002F0004CEA113102D0404261EB410113F0004F52
:100300004FEA03334CEA133302D0524263EB430308
:1003100094EA050F00F0A780A4F10104D5F1200EA6
:100320000DDB02FA0EFC22FA05F2801841F1000101
:1003300003FA0EF2801843FA05F359410EE0A5F1D5
:1003400020050EF1200E012A03FA0EFC28BF4CF006
:10035000020C43FA05F3C01851EBE37101F00045BC
:1003600007D54FF0000EDCF1000C7EEB00006EEBC9
:100370000101B1F5801F1BD3B1F5001F0CD3490853
:100380005FEA30004FEA3C0C04F101044FEA4452AA
:1003900012F5800F80F09A80BCF1004F08BF5FEA31
:1003A000500C50F1000041EB045141EA050130BD11
:1003B0005FEA4C0C404141EB0101013C28BFB1F523
:1003C000801FE9D291F0000F04BF01460020B1FA6E
:1003D00081F308BF2033A3F10B03B3F120020CDA41
:1003E0000C3208DD02F1140CC2F10C0201FA0CF01F
:1003F00021FA02F10CE002F11402D8BFC2F1200C84
:1004000001FA02F120FA0CFCDCBF41EA0C01904039
:10041000E41AA2BF01EB0451294330BD6FEA040482
:100420001F3C1CDA0C340EDC04F11404C4F120026D
:1004300020FA04F001FA02F340EA030021FA04F37F
:1004400045EA030130BDC4F10C04C4F1200220FAD6
:1004500002F001FA04F340EA0300294630BD21FA14
:1004600004F0294630BD94F0000F83F4801306BFDA
:1004700081F480110134013D4EE77FEA645C18BFCE
:100480007FEA655C29D094EA050F08BF90EA020F65
:1004900005D054EA000C04BF1946104630BD91EA5D
:1004A000030F1EBF0021002030BD5FEA545C05D160
:1004B0004000494128BF41F0004130BD14F580049F
:1004C0003CBF01F5801130BD01F0004545F0FE4113
:1004D00041F470014FF0000030BD7FEA645C1ABF48
:1004E000194610467FEA655C1CBF0B46024650EA7F
:1004F000013406BF52EA033591EA030F41F40021AB
:1005000030BD00BF90F0000F04BF0021704730B530
:100510004FF4806404F132044FF000054FF0000105
:1005200050E700BF90F0000F04BF0021704730B5C6
:100530004FF4806404F1320410F0004548BF40429B
:100540004FF000013EE700BF42004FEAE2014FEAF0
:1005500031014FEA02701FBF12F07F4393F07F4FCB
:1005600081F06051704732F07F4208BF704793F0CE
:100570007F4F04BF41F40021704730B54FF46074E1
:1005800001F0004521F000411CE700BF50EA0102E4
:1005900008BF704730B54FF000050AE050EA01028D
:1005A00008BF704730B511F0004502D5404261EBFD
:1005B00041014FF4806404F132045FEA915C3FF43E
:1005C000D8AE4FF003025FEADC0C18BF03325FEADB
:1005D000DC0C18BF033202EBDC02C2F1200300FA8C
:1005E00003FC20FA02F001FA03FE40EA0E0021FAB1
:1005F00002F11444BDE600BF70B54FF0FF0C4CF49F
:10060000E06C1CEA11541DBF1CEA135594EA0C0F50
:1006100095EA0C0F00F0DEF82C4481EA030621EA8B
:100620004C5123EA4C5350EA013518BF52EA0335C6
:1006300041F4801143F4801338D0A0FB02CE4FF078
:100640000005E1FB02E506F00042E0FB03E54FF0A8
:100650000006E1FB03569CF0000F18BF4EF0010EA0
:10066000A4F1FF04B6F5007F64F5407404D25FEA9C
:100670004E0E6D4146EB060642EAC62141EA55514F
:100680004FEAC52040EA5E504FEACE2EB4F1FD0C91
:1006900088BFBCF5E06F1ED8BEF1004F08BF5FEA0F
:1006A000500E50F1000041EB045170BD06F00046C1
:1006B00046EA010140EA020081EA0301B4EB5C046E
:1006C000C2BFD4EB0C0541EA045170BD41F4801166
:1006D0004FF0000E013C00F3AB8014F1360FDEBF8B
:1006E000002001F0004170BDC4F10004203C35DA67
:1006F0000C341BDC04F11404C4F1200500FA05F3EA
:1007000020FA04F001FA05F240EA020001F000428A
:1007100021F0004110EBD37021FA04F642EB060100
:100720005EEA430E08BF20EAD37070BDC4F10C042A
:10073000C4F1200500FA04F320FA05F001FA04F2EE
:1007400040EA020001F0004110EBD37041F10001DA
:100750005EEA430E08BF20EAD37070BDC4F12005E5
:1007600000FA05F24EEA020E20FA04F301FA05F24D
:1007700043EA020321FA04F001F0004121FA04F2F5
:1007800020EA020000EBD3705EEA430E08BF20EAC5
:10079000D37070BD94F0000F0FD101F000464000FF
:1007A00041EB010111F4801F08BF013CF7D041EA81
:1007B000060195F0000F18BF704703F00046520085
:1007C00043EB030313F4801F08BF013DF7D043EA56
:1007D0000603704794EA0C0F0CEA135518BF95EA0C
:1007E0000C0F0CD050EA410618BF52EA4306D1D193
:1007F00081EA030101F000414FF0000070BD50EAB2
:10080000410606BF1046194652EA430619D094EA3B
:100810000C0F02D150EA013613D195EA0C0F05D125
:1008200052EA03361CBF104619460AD181EA030179
:1008300001F0004141F0FE4141F470014FF0000031
:1008400070BD41F0FE4141F4780170BD70B54FF0CC
:10085000FF0C4CF4E06C1CEA11541DBF1CEA13554C
:1008600094EA0C0F95EA0C0F00F0A7F8A4EB05042E
:1008700081EA030E52EA03354FEA013100F0888025
:100880004FEA03334FF0805545EA131343EA1263EE
:100890004FEA022245EA111545EA10654FEA0026A3
:1008A0000EF000419D4208BF964244F1FD0404F55C
:1008B000407402D25B084FEA3202B61A65EB0305B8
:1008C0005B084FEA32024FF480104FF4002CB6EB75
:1008D000020E75EB030E22BFB61A754640EA0C00F5
:1008E0005B084FEA3202B6EB020E75EB030E22BF35
:1008F000B61A754640EA5C005B084FEA3202B6EB76
:10090000020E75EB030E22BFB61A754640EA9C0034
:100910005B084FEA3202B6EB020E75EB030E22BF04
:10092000B61A754640EADC0055EA060E18D04FEAC2
:10093000051545EA16754FEA06164FEAC30343EA62
:1009400052734FEAC2025FEA1C1CC0D111F4801F2F
:100950000BD141EA00014FF000004FF0004CB6E728
:1009600011F4801F04BF01430020B4F1FD0C88BFC7
:10097000BCF5E06F3FF6AFAEB5EB030C04BFB6EBD2
:10098000020C5FEA500C50F1000041EB045170BDC5
:100990000EF0004E4EEA113114EB5C04C2BFD4EBF2
:1009A0000C0541EA045170BD41F480114FF0000E76
:1009B000013C90E645EA060E8DE60CEA135594EAF2
:1009C0000C0F08BF95EA0C0F3FF43BAF94EA0C0FF5
:1009D0000AD150EA01347FF434AF95EA0C0F7FF46A
:1009E00025AF104619462CE795EA0C0F06D152EABE
:1009F00003353FF4FDAE1046194622E750EA4106A2
:100A000018BF52EA43067FF4C5AE50EA41047FF4B2
:100A10000DAF52EA43057FF4EBAE12E74FF0FF3C17
:100A200006E000BF4FF0010C02E000BF4FF0010CE8
:100A30004DF804CD4FEA410C7FEA6C5C4FEA430C61
:100A400018BF7FEA6C5C1BD001B050EA410C0CBFB0
:100A500052EA430C91EA030F02BF90EA020F002012
:100A6000704710F1000F91EA030F58BF994208BF79
:100A700090422CBFD8176FEAE37040F00100704736
:100A80004FEA410C7FEA6C5C02D150EA013C07D18D
:100A90004FEA430C7FEA6C5CD6D152EA033CD3D0D8
:100AA0005DF8040B704700BF8446104662468C46D2
:100AB0001946634600E000BF01B5FFF7B7FF002805
:100AC00048BF10F1000F01BD4DF808EDFFF7F4FF2E
:100AD0000CBF012000205DF808FB00BF4DF808EDB9
:100AE000FFF7EAFF34BF012000205DF808FB00BFDC
:100AF0004DF808EDFFF7E0FF94BF012000205DF8FE
:100B000008FB00BF4DF808EDFFF7CEFF94BF0120B2
:100B100000205DF808FB00BF4DF808EDFFF7C4FFAB
:100B200034BF012000205DF808FB00BF4FEA410CF4
:100B30007FEA6C5C02D150EA013C0AD14FEA430CD7
:100B40007FEA6C5C02D152EA033C02D14FF0000014
:100B500070474FF0010070474FEA410212F5001252
:100B600015D211D56FF47873B3EB625212D94FEAF4
:100B7000C12343F0004343EA505311F0004F23FADE
:100B800002F018BF404270474FF00000704750EA33
:100B9000013005D111F0004008BF6FF000407047F0
:100BA0004FF00000704700BF4A0011D212F500124A
:100BB00011D20DD56FF47873B3EB62520ED44FEAB5
:100BC000C12343F0004343EA505323FA02F0704735
:100BD0004FF00000704750EA013002D14FF0FF3073
:100BE00070474FF0000070474FEA4102B2F1E04316
:100BF00024BFB3F5001CDCF1FE5C0DD901F0004C04
:100C00004FEAC0024CEA5070B2F1004F40EB830053
:100C100008BF20F00100704711F0804F21D113F17F
:100C20003872BCBF01F00040704741F480114FEAB8
:100C30005252C2F11802C2F1200C10FA0CF320FA41
:100C400002F018BF40F001004FEAC1234FEAD3235E
:100C500003FA0CFC40EA0C0023FA02F34FEA4303C8
:100C6000CCE77FEA625307D150EA01331EBF4FF051
:100C7000FE4040F44000704701F0004040F0FE406C
:100C800040F40000704700BF80F0004002E000BF69
:100C900081F0004142001FBF5FEA410392EA030F67
:100CA0007FEA226C7FEA236C6AD04FEA1262D2EBB1
:100CB0001363C1BFD218414048404140B8BF5B42B6
:100CC000192B88BF704710F0004F40F4000020F04F
:100CD0007F4018BF404211F0004F41F4000121F065
:100CE0007F4118BF494292EA030F3FD0A2F10102AF
:100CF00041FA03FC10EB0C00C3F1200301FA03F1ED
:100D000000F0004302D5494260EB4000B0F5000F0F
:100D100013D3B0F1807F06D340084FEA310102F1CE
:100D20000102FE2A51D2B1F1004F40EBC25008BF80
:100D300020F0010040EA03007047490040EB00004A
:100D4000013A28BFB0F5000FEDD2B0FA80FCACF14B
:100D5000080CB2EB0C0200FA0CF0AABF00EBC25078
:100D600052421843BCBFD0401843704792F0000F66
:100D700081F4000106BF80F400000132013BB5E7B9
:100D80004FEA41037FEA226C18BF7FEA236C21D02F
:100D900092EA030F04D092F0000F08BF0846704794
:100DA00090EA010F1CBF0020704712F07F4F04D162
:100DB000400028BF40F00040704712F100723CBF75
:100DC00000F50000704700F0004343F0FE4040F49F
:100DD000000070477FEA226216BF08467FEA23635D
:100DE0000146420206BF5FEA412390EA010F40F448
:100DF000800070474FF0000304E000BF10F0004394
:100E000048BF40425FEA000C08BF704743F096437A
:100E100001464FF000001CE050EA010208BF704795
:100E20004FF000030AE000BF50EA010208BF70471C
:100E300011F0004302D5404261EB41015FEA010C31
:100E400002BF84460146002043F0B64308BFA3F129
:100E50008053A3F50003BCFA8CF2083AA3EBC2530B
:100E600010DB01FA02FC634400FA02FCC2F120022A
:100E7000BCF1004F20FA02F243EB020008BF20F061
:100E80000100704702F1200201FA02FCC2F12002C7
:100E900050EA4C0021FA02F243EB020008BF20EABC
:100EA000DC7070477BB972B90029BEBF00204FF0DB
:100EB000004106E008BF00281CBF6FF000414FF062
:100EC000FF3000F029BAADF1080C6DE904CE00291D
:100ED00009DB002B1ADB00F0B7F8DDF804E0DDE9F0
:100EE000022304B07047404261EB4101002B1BDB41
:100EF00000F0AAF8DDF804E0DDE9022304B0404286
:100F000061EB4101524263EB43037047524263EB92
:100F1000430300F099F8DDF804E0DDE9022304B0B2
:100F2000404261EB41017047524263EB430300F0E2
:100F30008BF8DDF804E0DDE9022304B0524263EBF4
:100F40004303704753B94AB9002908BF00281CBFA2
:100F50004FF0FF314FF0FF3000F0DEB9ADF1080C7B
:100F60006DE904CE00F070F8DDF804E0DDE902235D
:100F700004B0704707EE900AF5EEC07AF1EE10FA71
:100F800001D400F023B8F1EE677A08B517EE900AA5
:100F900000F01CF8404261EB410108BD38B5002269
:100FA000002304460D46FFF799FD28B9204629463F
:100FB000BDE8384000F02AB8204605F1004100F0B5
:100FC00025F8404261EB410138BD00BFD0B5FFF7C5
:100FD000BBFA0C4B002206460F46FFF70DFBFFF74E
:100FE000E3FD0446FFF78EFA074B0022FFF704FBF0
:100FF00002460B4630463946FFF746F9FFF7D4FD67
:101000002146D0BD0000F03D0000F041D0B50C4BB2
:10101000002206460F46FFF7EFFAFFF7C5FD04462C
:10102000FFF770FA074B0022FFF7E6FA02460B467D
:1010300030463946FFF728F9FFF7B6FD2146D0BD07
:101040000000F03D0000F0412DE9F047089D044606
:101050008E46002B4DD18A42944669D9B2FA82F26B
:1010600052B101FA02F3C2F1200120FA01F10CFAA7
:1010700002FC41EA030E94404FEA1C48210CBEFBDF
:10108000F8F61FFA8CF708FB16E341EA034306FB68
:1010900007F199420AD91CEB030306F1FF3080F0F7
:1010A0001F81994240F21C81023E63445B1AA4B244
:1010B000B3FBF8F008FB103344EA034400FB07F7E6
:1010C000A7420AD91CEB040400F1FF3380F00A8127
:1010D000A74240F207816444023840EA0640E41B1C
:1010E00000261DB1D4400023C5E900433146BDE8C8
:1010F000F0878B4209D9002D00F0EF800026C5E96A
:10110000000130463146BDE8F087B3FA83F6002E81
:101110004AD18B4202D3824200F2F980841A61EBF9
:10112000030301209E46002DE0D0C5E9004EDDE717
:1011300002B9FFDEB2FA82F2002A40F09280A1EBFF
:101140000C014FEA1C471FFA8CFE0126200CB1FB54
:10115000F7F307FB131140EA01410EFB03F088424D
:1011600008D91CEB010103F1FF3802D2884200F2DA
:10117000CB804346091AA4B2B1FBF7F007FB10116C
:1011800044EA01440EFB00FEA64508D91CEB04040A
:1011900000F1FF3102D2A64500F2BB800846A4EB65
:1011A0000E0440EA03409CE7C6F12007B34022FA50
:1011B00007FC4CEA030C20FA07F401FA06F31C437F
:1011C000F9404FEA1C4900FA06F3B1FBF9F8200C8C
:1011D0001FFA8CFE09FB181140EA014108FB0EF0D2
:1011E000884202FA06F20BD91CEB010108F1FF3A22
:1011F00080F08880884240F28580A8F1020861442E
:10120000091AA4B2B1FBF9F009FB101144EA01413B
:1012100000FB0EFE8E4508D91CEB010100F1FF34E6
:101220006CD28E456AD90238614440EA0840A0FB7E
:101230000294A1EB0E01A142C846A64656D353D054
:101240005DB1B3EB080261EB0E0101FA07F722FA78
:1012500006F3F1401F43C5E9007100263146BDE8A1
:10126000F087C2F12003D8400CFA02FC21FA03F304
:10127000914001434FEA1C471FFA8CFEB3FBF7F085
:1012800007FB10360B0C43EA064300FB0EF69E42AA
:1012900004FA02F408D91CEB030300F1FF382FD243
:1012A0009E422DD9023863449B1B89B2B3FBF7F6EB
:1012B00007FB163341EA034106FB0EF38B4208D9C4
:1012C0001CEB010106F1FF3816D28B4214D9023E05
:1012D0006144C91A46EA004638E72E46284605E723
:1012E0000646E3E61846F8E64B45A9D2B9EB0208F4
:1012F00064EB0C0E0138A3E74646EAE7204694E784
:101300004046D1E7D0467BE7023B614432E73046B6
:1013100009E76444023842E7704700BF80B584B0F3
:1013200000AF78600B467B800023FB737B681B68F3
:101330002A4A93424ED13BE0FB7B5A1CFA73194672
:10134000274B1B881A46274B595C274B9954244B33
:101350001B881A46244B9B5C0A2B17D10023BB60C9
:101360000BE0214ABB6813441978204ABB68134438
:101370000A461A70BB680133BB60194B1B881A46BA
:10138000BB689342EDDB1A4B01221A70FB7B5A1E9D
:101390007B889A4205D0124B1B8801339AB2104BBE
:1013A0001A800F4B1B88402B02D90D4B00221A804C
:1013B000FB7B9BB27A889A42BED2402209490D48F3
:1013C00004F01DFD0C4B1B681A680B4B1B6822F0C8
:1013D00004021A6000BF1037BD4680BD00440040C3
:1013E00080030020F4020020340300208403002046
:1013F000C503002028020020AC02002080B582B086
:1014000000AF78607868FEF7E3FE03469AB24FF4C7
:101410007A737968034803F087FA00BF0837BD463E
:1014200080BD00BF2802002080B582B000AF786088
:1014300002E07B6801337B607B681B78002B1CD04B
:101440007B681B780133144A13441B7803F00403B0
:10145000002B12D17B681B782D2B03D07B681B7867
:101460002B2BE6D17B6801331B7801330A4A1344E6
:101470001B7803F00403002BDBD00021786806F012
:101480003FFAB0EE407AF0EE607AB0EE470AF0EE46
:10149000670A0837BD4680BD98A9000880B485B0AA
:1014A00000AF786039600123FB6004E0FB687A6874
:1014B00002FB03F3FB603B685A1E3A60002BF5DC2D
:1014C000FB6818461437BD465DF8047B70472DE96C
:1014D000B04F9AB000AF87ED0B0AB8624FF0FF3201
:1014E0004FF0FF33C7E90E23D7ED0B7AF5EEC07A44
:1014F000F1EE10FA0BD54FF02D024FF00003C7E9C3
:101500000E23D7ED0B7AF1EE677AC7ED0B7AFB6A03
:101510007B63F86AFFF72EFD02460B46C7E91223EC
:101520004FF000024FF00003C7E918234FF000020C
:101530004FF00003C7E916231EE0BB6D01331946C7
:101540000A20FFF7ABFF07EE900AF8EEE77A97ED77
:101550000B7A67EE277AC7ED0D7A786BFFF70AFDF5
:1015600002460B46C7E91223D7E9162312F10108F8
:1015700043F10009C7E91689D7E91201FFF754FCC6
:1015800007EE100AD7ED0D7A77EEC77AF5EE407ABE
:10159000F1EE10FA16D0D7E91201FFF745FC07EE7D
:1015A000100AD7ED0D7A77EEC77AF5EEC07AF1EE34
:1015B00010FA4CBF01230023DBB283F00103DBB23E
:1015C000002BBAD1D7ED0B7AB7EE007AF4EEC77ADA
:1015D000F1EE10FACCBF01230023DBB283F001034C
:1015E000DBB2DA173B627A62D7E90823C7E918232E
:1015F00012E097ED0B7AF2EE046AC7EE267AC7ED99
:101600000B7AD7E91823511CB96143F10003FB6140
:10161000D7E90623C7E91823D7ED0B7AB7EE007A8E
:10162000F4EEC77AF1EE10FAE3DCD7E91823C7E944
:101630001023D7E91823541C43F10005D7E91623DA
:10164000111939616B417B61D7E90434C7E918345A
:10165000786BFFF78FFC02460B46C7E91223D7E9E8
:101660000E23A2F12D010B4315D1D7E91823511CEC
:10167000B96043F10003FB60D7E90234C7E91834CD
:10168000D7E91023511C396043F100037B60D7E98F
:101690000034C7E91034D7E91823C7E914234EE012
:1016A000D7E91401D7E91823994208BF904205D120
:1016B0003B6DBA6A134400221A7038E0D7E914016E
:1016C000D7E91023994208BF904205D13B6DBA6A11
:1016D00013442E221A702AE0D7E90E23A2F12D011D
:1016E0000B4309D1D7E91423134305D13B6DBA6AE3
:1016F00013442D221A701AE0D7E912014FF00A02A2
:101700004FF00003FFF7CEFBD2B23B6DB96A0B443A
:101710003032D2B21A70D7E912014FF00A024FF0FC
:101720000003FFF7BFFB02460B46C7E91223D7E9C8
:10173000142312F1FF3A43F1FF3BC7E914ABD7E999
:101740001423002BACDA00BF00BF6837BD46BDE8EC
:10175000B08F000080B485B000AF78607B68FB601C
:1017600015E0FB681B78FB72FB7A01330D4A1344CA
:101770001B7803F00303012B02D1FB7A203300E036
:10178000FB7ADAB2FB681A70FB680133FB60FB6816
:101790001B78002BE5D17B6818461437BD465DF8F1
:1017A000047B704798A9000880B500AF00F0E0FD09
:1017B00000F06CFA00F06AFB00F04AFB00F0DCFA83
:1017C00000F016FB40226C496C4804F018FB6C4B8F
:1017D0001B681A686A4B1B6822F004021A60002119
:1017E000684800F098FF684B01221A70674B01228D
:1017F0001A70674B1B78002BFBD06648FFF7AAFFD7
:1018000003466549184605F03AFA0346634A1360F1
:10181000624B1B68002B0AD15E48FFF79BFF034613
:101820005F49184605F02BFA03465C4A1360594895
:10183000FFF790FF03465B49184605F020FA034680
:10184000594A1360584B1B68002B0AD15148FFF7C7
:1018500081FF03465549184605F011FA0346524ADE
:1018600013604C48FFF776FF03465149184605F0D0
:1018700006FA03464F4A13604E4B1B68002B0AD1F1
:101880004448FFF767FF03464B49184605F0F7F950
:101890000346484A13603F48FFF75CFF0346474949
:1018A000184605F0ECF90346454A1360444B1B68A3
:1018B000002B0AD13748FFF74DFF03464149184630
:1018C00005F0DDF903463E4A13603248FFF742FF58
:1018D00003463D49184605F0D2F903463B4A1360DA
:1018E0003A4B1B68002B0AD12A48FFF733FF034607
:1018F0003749184605F0C3F90346344A1360274BAD
:101900001B68002B1ED0214B1B78012B03D13148C3
:10191000FFF774FD06E01D4B1B78022B02D12E4809
:10192000FFF76CFD1A4B00221A7040220021194863
:1019300004F0EAFA294B00221A80402200212848AC
:1019400004F0E2FA184B1B68002B76D00F4B1B7883
:10195000012B4DD1234BD3ED007A2348B0EE670A1B
:10196000FFF7B5FD012221491F4805F075F903462F
:101970001846FFF743FD50E0F40200202802002043
:10198000AC02002014020020C6030020C403002083
:10199000C50300208403002080A80008C80300209D
:1019A00094A80008A0A80008CC030020B8A800084C
:1019B000C8A80008D0030020E4A80008F4A8000884
:1019C000D403002010A9000820A90008D803002093
:1019D00038A9000848A900084CA900088003002085
:1019E00034030020740300200000002014000020B5
:1019F000954B1B78022B10D1944BD3ED007A944871
:101A0000B0EE670AFFF763FD02229249904805F0A5
:101A100023F903461846FFF7F1FC8F4B00221A709A
:101A2000402200218D4804F06FFA8D4B00221A806D
:101A3000402200218B4804F067FA8B4B1B68002B77
:101A400040D08A4B1B7883F00103DBB2002B26D0F9
:101A50000021874800F05FFE844B01221A70854BFD
:101A6000D3ED007A9FED847A67EE877A17EE900ABD
:101A7000FEF76AFD72A3D3E90023FEF7E7FE0246F4
:101A80000B4610461946FFF78FF803467B4A136052
:101A90007A4B1B6800220021754800F089FE6A4BD2
:101AA00001221A706C4B00221A70402200216B48F0
:101AB00004F02AFA6A4B00221A8040220021694869
:101AC00004F022FA6E4B1B68002B40D06D4B1B7844
:101AD00083F00103DBB2002B26D01021644800F014
:101AE0001AFE684B01221A70584BD3ED007A9FED15
:101AF000627A67EE877A17EE900AFEF725FD50A30B
:101B0000D3E90023FEF7A2FE02460B461046194613
:101B1000FFF74AF80346594A1360584B1B680022E6
:101B20001021534800F044FE474B02221A704A4BE2
:101B300000221A7040220021484804F0E5F9484B81
:101B400000221A8040220021464804F0DDF94E4B65
:101B50001B68002B3FF44DAE3B4B1B78012B2CD167
:101B60003E48FFF761FC53EC102B10461946FFF777
:101B70003BF803463F4A13603E4BD3ED007A9FED9E
:101B80003E7A67EE877A17EE900AFEF7DDFC2CA30B
:101B9000D3E90023FEF75AFE02460B4610461946CB
:101BA000FFF702F80346354A1360344B1B680022E6
:101BB00000212F4800F0FCFD2FE0234B1B78022B67
:101BC0002BD12648FFF730FC53EC102B104619465A
:101BD000FFF70AF803461D4A13601C4BD3ED007A49
:101BE0009FED257A67EE877A17EE900AFEF7ACFC38
:101BF00013A3D3E90023FEF729FE02460B46104645
:101C00001946FEF7D1FF03461C4A13601B4B1B68A5
:101C100000221021164800F0CBFD0F4B00221A7055
:101C2000402200210D4804F06FF90D4B00221A806C
:101C3000402200210B4804F067F9DAE5AFF3008099
:101C40006666666666660A40C40300207803002064
:101C50000000002014000020C503002084030020A1
:101C60008003002034030020D0030020C60300209E
:101C70001402002074030020000080457C03002033
:101C8000D4030020C7030020D803002080B5B8B0DB
:101C900000AF07F19C0344220021184604F034F9F8
:101CA00007F1880300221A605A609A60DA601A61AC
:101CB0003B4688220021184604F026F90223C7F883
:101CC0009C304FF48073C7F8A8301023C7F8AC30AD
:101CD0000223C7F8C4300223C7F8C8300123C7F86D
:101CE000CC300A23C7F8D0300723C7F8D4300223FA
:101CF000C7F8D8300223C7F8DC3007F19C03184638
:101D000001F01AFB0346002B01D000F011F90F235C
:101D1000C7F888300323C7F88C300023C7F8903009
:101D20000023C7F894300023C7F8983007F18803E0
:101D30000421184601F0E8FE0346002B01D000F014
:101D4000F7F802233B600023FB633B46184602F092
:101D5000E1F80346002B01D000F0EAF84FF40070E0
:101D600001F094FA0346002B01D000F0E1F800BF27
:101D7000E037BD4680BD000080B58AB000AF3B1D96
:101D800024220021184604F0BFF8174B174A1A60A6
:101D9000154800F09EFC0346002B01D000F0C8F867
:101DA00000237B600023BB600023FB6000233B61BA
:101DB00000237B613B1D002219460B4800F01DFDEE
:101DC0000346002B01D000F0B3F83B1D102219464A
:101DD000054800F012FD0346002B01D000F0A8F8E2
:101DE00000BF2837BD4680BD1402002000740040AB
:101DF00080B500AF144B154A1A60134B4FF4E13213
:101E00005A60114B00229A600F4B0022DA600E4B91
:101E100000221A610C4B0C225A610B4B00229A6172
:101E2000094B0022DA61084B00221A62064B00229D
:101E30005A62054802F02AFD0346002B01D000F04B
:101E400077F800BF80BD00BF28020020004400409A
:101E500080B582B000AF0C4B9B6C0B4A43F0010382
:101E60009364094B9B6C03F001037B607B68002249
:101E70000021102000F0F7FB102000F010FC00BF44
:101E80000837BD4680BD00BF0010024080B58AB053
:101E900000AF07F1140300221A605A609A60DA60FA
:101EA0001A61214BDB6C204A43F00403D3641E4BC0
:101EB000DB6C03F004033B613B691B4BDB6C1A4A90
:101EC00043F08003D364184BDB6C03F08003FB60AA
:101ED000FB68154BDB6C144A43F00103D364124BCF
:101EE000DB6C03F00103BB60BB680F4BDB6C0E4A7D
:101EF00043F00203D3640C4BDB6C03F002037B6002
:101F00007B684FF400537B614FF40413BB610023E3
:101F1000FB6107F114031946044800F0FFFF00BFFE
:101F20002837BD4680BD00BF0010024000080048B1
:101F300080B400AF72B600BFFEE7000080B483B08B
:101F400000AF0F4B1B6E0E4A43F0010313660C4BA0
:101F50001B6E03F001037B607B68094B9B6D084A95
:101F600043F080539365064B9B6D03F080533B60B9
:101F70003B6800BF0C37BD465DF8047B704700BF6F
:101F80000010024080B58AB000AF786007F11403FA
:101F900000221A605A609A60DA601A617B681B68D6
:101FA000154A934224D1154B9B6D144A43F00053BC
:101FB0009365124B9B6D03F000533B613B690F4BE4
:101FC000DB6C0E4A43F00103D3640C4BDB6C03F073
:101FD0000103FB60FB6830237B610323BB610023AB
:101FE000FB6107F1140319464FF0904000F096FF93
:101FF00000BF2837BD4680BD00740040001002407D
:1020000080B58AB000AF786007F1140300221A602F
:102010005A609A60DA601A617B681B68304A9342A2
:1020200059D1304B9B6D2F4A43F4003393652D4BB0
:102030009B6D03F400333B613B692A4BDB6C294AFF
:1020400043F00103D364274BDB6C03F00103FB6017
:10205000FB680C237B610223BB610023FB6103232C
:102060003B6207237B6207F1140319464FF090404F
:1020700000F054FF1C4B1D4A1A601B4B02225A6091
:10208000194B00229A60184B0022DA60164B80220E
:102090001A61154B00225A61134B00229A61124BB0
:1020A0000022DA61104B00221A620F4800F0C0FCD7
:1020B0000346002B01D0FFF73BFF7B680A4A1A67F3
:1020C000094A7B68936200220021262000F0CBFAA7
:1020D000262000F0E4FA00BF2837BD4680BD00BFCF
:1020E0000044004000100240AC0200206C0002409E
:1020F00080B400AFFEE780B400AFFEE780B400AF6D
:10210000FEE780B400AFFEE780B400AFFEE780B426
:1021100000AF00BFBD465DF8047B704780B400AFE0
:1021200000BFBD465DF8047B704780B400AF00BFC0
:10213000BD465DF8047B704780B500AF00F074F9D0
:1021400000BF80BD80B500AF024800F008FE00BFB0
:1021500080BD00BFAC02002080B500AF024802F095
:1021600077FC00BF80BD00BF2802002080B400AF14
:1021700001231846BD465DF8047B704780B582B0E8
:1021800000AF7860396003F095FE034616221A60AE
:102190004FF0FF3318460837BD4680BD80B582B08A
:1021A00000AF78604FF0FF317868FFF7E7FFFEE798
:1021B00080B586B000AFF860B9607A6000237B61BB
:1021C0000AE0AFF300800146BB685A1CBA60CAB28D
:1021D0001A707B6901337B617A697B689A42F0DB14
:1021E0007B6818461837BD4680BD80B586B000AF05
:1021F000F860B9607A6000237B6109E0BB685A1C13
:10220000BA601B781846AFF300807B6901337B61AD
:102210007A697B689A42F1DB7B6818461837BD46BD
:1022200080BD80B483B000AF78604FF0FF331846B4
:102230000C37BD465DF8047B704780B483B000AFB7
:10224000786039603B684FF400525A6000231846AA
:102250000C37BD465DF8047B704780B483B000AF97
:102260007860012318460C37BD465DF8047B704743
:1022700080B485B000AFF860B9607A60002318467A
:102280001437BD465DF8047B7047000080B586B00A
:1022900000AF7860144A154BD31A7B617B693B61B0
:1022A000134B1B68002B02D1114B124A1A60104BC2
:1022B0001A687B6813443A699A4207D203F0FAFD20
:1022C00003460C221A604FF0FF3309E0084B1B68ED
:1022D000FB60074B1A687B681344054A1360FB6870
:1022E00018461837BD4680BD00800120000400005C
:1022F000DC030020F803002080B400AF064BD3F8C5
:102300008830054A43F47003C2F8883000BFBD46E8
:102310005DF8047B704700BF00ED00E0DFF834D0CB
:10232000FFF7EAFF0C480D490D4A002302E0D4589C
:10233000C4500433C4188C42F9D30A4A0A4C00230F
:1023400001E013600432A242FBD303F0B9FDFFF7B2
:102350002BFAFEE70080012000000020F801002099
:1023600054AE0008F8010020F4030020FEE700004E
:1023700080B582B000AF0023FB710C4B1B680B4A89
:1023800043F480731360032000F062F9002000F032
:102390000FF80346002B02D00123FB7101E0FFF789
:1023A000CDFDFB7918460837BD4680BD00200240B0
:1023B00080B584B000AF78600023FB73174B1B78A7
:1023C000002B23D0164B1A68144B1B7819464FF478
:1023D0007A73B3FBF1F3B2FBF3F3184600F06DF937
:1023E0000346002B0FD17B680F2B09D80022796898
:1023F0004FF0FF3000F037F90A4A7B68136007E0BE
:102400000123FB7304E00123FB7301E00123FB7351
:10241000FB7B18461037BD4680BD00BF2000002062
:10242000180000201C00002080B400AF064B1B7871
:102430001A46064B1B681344044A136000BFBD468E
:102440005DF8047B704700BF20000020E0030020FF
:1024500080B400AF034B1B681846BD465DF8047B93
:10246000704700BFE003002080B584B000AF786003
:10247000FFF7EEFFB8607B68FB60FB68B3F1FF3FDE
:1024800005D00A4B1B781A46FB681344FB6000BF5B
:10249000FFF7DEFF0246BB68D31AFA689A42F7D804
:1024A00000BF00BF1037BD4680BD00BF2000002028
:1024B00080B485B000AF78607B6803F00703FB60F1
:1024C0000C4BDB68BB60BA684FF6FF031340BB6080
:1024D000FB681A02BB68134343F0BF6343F4003345
:1024E000BB60044ABB68D36000BF1437BD465DF8CB
:1024F000047B704700ED00E080B400AF044BDB6864
:102500001B0A03F007031846BD465DF8047B7047BD
:1025100000ED00E080B483B000AF0346FB7197F993
:102520000730002B0BDBFB7903F01F02074997F9FB
:1025300007305B09012000FA02F241F8232000BFB6
:102540000C37BD465DF8047B704700BF00E100E03A
:1025500080B483B000AF03463960FB7197F9073050
:10256000002B0ADB3B68DAB20C4997F907301201FD
:10257000D2B20B4483F800230AE03B68DAB2084980
:10258000FB7903F00F03043B1201D2B20B441A761D
:1025900000BF0C37BD465DF8047B704700E100E0EA
:1025A00000ED00E080B489B000AFF860B9607A60F7
:1025B000FB6803F00703FB61FB69C3F10703042B0E
:1025C00028BF0423BB61FB690433062B02D9FB69D6
:1025D000033B00E000237B614FF0FF32BB6902FA4E
:1025E00003F3DA43BB681A407B699A404FF0FF312E
:1025F0007B6901FA03F3D9437B680B401343184608
:102600002437BD465DF8047B7047000080B582B07A
:1026100000AF78607B68013BB3F1807F01D3012379
:102620000FE00A4A7B68013B53600F214FF0FF30F7
:10263000FFF78EFF054B00229A60044B07221A60B9
:10264000002318460837BD4680BD00BF10E000E0FB
:1026500080B582B000AF78607868FFF729FF00BFCF
:102660000837BD4680BD80B586B000AF0346B9606F
:102670007A60FB7300237B61FFF73EFF78617A6825
:10268000B9687869FFF78EFF024697F90F30114657
:102690001846FFF75DFF00BF1837BD4680BD80B507
:1026A00082B000AF0346FB7197F907301846FFF779
:1026B00031FF00BF0837BD4680BD80B582B000AF96
:1026C00078607868FFF7A2FF034618460837BD46D2
:1026D00080BD80B582B000AF78607B68002B01D1EF
:1026E000012314E07B681B79DBB2002B05D17B68EA
:1026F00000225A717868FFF745FC7B6802221A7144
:102700007B6800221A617B6801221A710023184637
:102710000837BD4680BD80B483B000AF78603960B3
:102720007B685B79012B01D102233BE07B680122AE
:102730005A717B6802221A717B681B6819683B68B2
:1027400003F0100301229A407B681B680A431A6059
:102750003B68002B0FD17B681B681B6803F03C03B0
:10276000042B18D17B681B685A687B681B6842F091
:1027700001025A600FE07B681B681B6803F470134A
:10278000B3F5802F07D17B681B685A687B681B688C
:1027900042F002025A607B6801221A717B680022B3
:1027A0005A71002318460C37BD465DF8047B70470C
:1027B00080B487B000AFF860B9607A603B600023F6
:1027C0007B61FB681B687B61BB68002B05D17A6964
:1027D0007B68134408337B6104E07A697B681344A7
:1027E00014337B617B691A463B68136000231846EB
:1027F0001C37BD465DF8047B704780B588B000AFDC
:10280000F860B9607A600023FB61FB685B79012B9B
:1028100001D1022307E1FB6801225A71FB68022201
:102820001A71BB681B68042B74D1FFF711FEF861A5
:102830007B68002B34D111E0FFF70AFE0246FB69EA
:10284000D31A012B0AD9FB681B6943F00802FB6805
:102850001A61FB6803221A710323E4E0FB681B681A
:102860005B6B03F40043002BE6D10120FFF7FCFD76
:10287000FB681B68BA6892691A641EE0FFF7E8FDFE
:102880000246FB69D31A012B0AD9FB681B6943F086
:102890000802FB681A61FB6803221A710323C2E075
:1028A000FB681B685B6B002BE8DB0120FFF7DCFD9E
:1028B000FB681B68BA6892695A64FB681B689A6C6B
:1028C0007B6803F0100340F2FF3101FA03F3DB43AE
:1028D00002EA0301BB68DA697B6803F010039A40DF
:1028E000FB681B680A439A64FB681B68DA6C7B68A8
:1028F00003F01003FF2101FA03F3DB4302EA0301B3
:10290000BB681A6A7B6803F010039A40FB681B6877
:102910000A43DA64BB681B69012B1DD1FB681B6885
:102920009B6BBB617B6803F010031F2202FA03F369
:10293000DB43BA691340BB61BB685B697B617B6841
:1029400003F010037A6902FA03F3BA691343BB6117
:10295000FB681B68BA699A63FB681B68DB6BBB6129
:102960007B6803F01003072202FA03F3DB43BA6922
:102970001340BB61BB681A68BB689B681A43BB689D
:10298000DB6813437B617B6803F010037A6902FA0A
:1029900003F3BA691343BB61FB681B68BA69DA6366
:1029A000FB681B6819687B6803F010034FF48042D2
:1029B00002FA03F3DA43FB681B680A401A60FB68FB
:1029C0001B681B68BB617B6803F0100340F6FC7258
:1029D00002FA03F3DB43BA691340BB61BB685B686F
:1029E0007B617B6803F010037A6902FA03F3BA692A
:1029F0001343BB61FB681B68BA691A60FB681B68FC
:102A000019687B6803F01003C02202FA03F3DA436B
:102A1000FB681B680A401A60FB6801221A71FB6898
:102A200000225A71002318462037BD4680BD0000A1
:102A300080B485B000AF78607B68002B01D10123A2
:102A400098E07B681B681A464D4B9A420FD87B680A
:102A50001B681A464B4B13444B4AA2FB03231B092A
:102A60009A007B685A647B68484A1A640EE07B6867
:102A70001B681A46464B1344434AA2FB03231B0917
:102A80009A007B685A647B68424A1A647B68022217
:102A900083F825207B681B681B68FB60FB6823F4B8
:102AA000FF4323F07003FB607B689A687B68DB68F8
:102AB0001A437B681B691A437B685B691A437B680E
:102AC0009B691A437B68DB691A437B681B6A134363
:102AD000FA681343FB607B681B68FA681A607B68BE
:102AE0009B68B3F5804F39D07B681B6C274A9342B3
:102AF0001AD1294B1A687B685B6C03F01C030F2109
:102B000001FA03F3DB43244913400B60224B1A689C
:102B10007B6859687B685B6C03F01C0301FA03F364
:102B20001D4913430B6019E01C4B1A687B685B6CF2
:102B300003F01C030F2101FA03F3DB431749134091
:102B40000B60164B1A687B6859687B685B6C03F0F6
:102B50001C0301FA03F3114913430B607B68002245
:102B6000DA637B68012283F825207B68002283F8E2
:102B70002420002318461437BD465DF8047B7047B7
:102B800007040240F8FFFDBFCDCCCCCC00000240D2
:102B9000F8FBFDBF00040240A8000240A804024068
:102BA00080B586B000AFF860B9607A603B60002302
:102BB000FB75FB6893F82430012B01D102234BE015
:102BC000FB68012283F82420FB6893F82530DBB2F0
:102BD000012B3AD1FB68022283F82520FB680022F2
:102BE000DA63FB681B681A68FB681B6822F0010245
:102BF0001A603B687A68B968F86800F05FF9FB68AA
:102C00001B6B002B08D0FB681B681A68FB681B68ED
:102C100042F00E021A600FE0FB681B681A68FB683E
:102C20001B6822F004021A60FB681B681A68FB68C4
:102C30001B6842F00A021A60FB681B681A68FB688E
:102C40001B6842F001021A6005E0FB68002283F86D
:102C500024200223FB75FB7D18461837BD4680BD36
:102C600080B485B000AF78600023FB737B6893F875
:102C70002530DBB2022B08D07B680422DA637B6844
:102C8000002283F82420012322E07B681B681A6855
:102C90007B681B6822F00E021A607B681B681A684A
:102CA0007B681B6822F001021A607B685B6C03F092
:102CB0001C027B681B6C012101FA02F25A607B68DE
:102CC000012283F825207B68002283F82420FB7BE7
:102CD00018461437BD465DF8047B704780B584B054
:102CE00000AF78600023FB737B6893F82530DBB27C
:102CF000022B05D07B680422DA630123FB7329E0F1
:102D00007B681B681A687B681B6822F00E021A60D9
:102D10007B681B681A687B681B6822F001021A60D6
:102D20007B685B6C03F01C027B681B6C012101FA61
:102D300002F25A607B68012283F825207B6800221A
:102D400083F824207B689B6B002B03D07B689B6BF4
:102D500078689847FB7B18461037BD4680BD80B524
:102D600084B000AF78607B681B6C1B68FB607B687D
:102D70001B681B68BB607B685B6C03F01C03042250
:102D80009A40FB681340002B26D0BB6803F0040375
:102D9000002B21D07B681B681B6803F02003002BED
:102DA00007D17B681B681A687B681B6822F00402E5
:102DB0001A607B685B6C03F01C027B681B6C04214F
:102DC00001FA02F25A607B681B6B002B71D07B68A2
:102DD0001B6B786898476CE07B685B6C03F01C03A6
:102DE00002229A40FB681340002B2ED0BB6803F0F0
:102DF0000203002B29D07B681B681B6803F02003AB
:102E0000002B0BD17B681B681A687B681B6822F05B
:102E10000A021A607B68012283F825207B685B6CBC
:102E200003F01C027B681B6C022101FA02F25A605B
:102E30007B68002283F824207B68DB6A002B38D073
:102E40007B68DB6A7868984733E07B685B6C03F0EB
:102E50001C0308229A40FB681340002B2AD0BB6851
:102E600003F00803002B25D07B681B681A687B6879
:102E70001B6822F00E021A607B685B6C03F01C0278
:102E80007B681B6C012101FA02F25A607B68012207
:102E9000DA637B68012283F825207B68002283F8AF
:102EA00024207B685B6B002B04D07B685B6B7868AD
:102EB000984700BF00BF1037BD4680BD80B485B0C5
:102EC00000AFF860B9607A603B60FB685B6C03F050
:102ED0001C02FB681B6C012101FA02F25A60FB68BC
:102EE0001B683A685A60FB689B68102B08D1FB6826
:102EF0001B687A689A60FB681B68BA68DA6007E04A
:102F0000FB681B68BA689A60FB681B687A68DA60BD
:102F100000BF1437BD465DF8047B704780B487B0AE
:102F200000AF7860396000237B617FE13B681A68FD
:102F300001217B6901FA03F31340FB60FB68002B5E
:102F400000F071813B685B6803F00303012B05D03F
:102F50003B685B6803F00303022B30D17B689B68FE
:102F60003B617B695B00032202FA03F3DB433A69AE
:102F700013403B613B68DA687B695B0002FA03F34C
:102F80003A6913433B617B683A699A607B685B6886
:102F90003B6101227B6902FA03F3DB433A69134088
:102FA0003B613B685B681B0903F001027B6902FA25
:102FB00003F33A6913433B617B683A695A603B68A3
:102FC0005B6803F00303032B18D17B68DB6A3B616A
:102FD00001227B6902FA03F3DB433A6913403B6148
:102FE0003B685B68DB0803F001027B6902FA03F3CC
:102FF0003A6913433B617B683A69DA623B685B6814
:1030000003F00303032B17D07B68DB683B617B690C
:103010005B00032202FA03F3DB433A6913403B618E
:103020003B689A687B695B0002FA03F33A691343D1
:103030003B617B683A69DA603B685B6803F00303D5
:10304000022B23D17B69DA087B68083253F82230DF
:103050003B617B6903F007039B000F2202FA03F335
:10306000DB433A6913403B613B681A697B6903F0B3
:1030700007039B0002FA03F33A6913433B617B6940
:10308000DA087B680832396943F822107B681B68CC
:103090003B617B695B00032202FA03F3DB433A697D
:1030A00013403B613B685B6803F003027B695B0094
:1030B00002FA03F33A6913433B617B683A691A6089
:1030C0003B685B6803F44033002B00F0AC805F4B3F
:1030D0001B6E5E4A43F0010313665C4B1B6E03F0EC
:1030E0000103BB60BB685A4A7B699B08023352F8F4
:1030F00023303B617B6903F003039B000F2202FA3C
:1031000003F3DB433A6913403B617B68B3F1904FB3
:1031100025D07B684F4A93421FD07B684E4A93422A
:1031200019D07B684D4A934213D07B684C4A934236
:103130000DD07B684B4A934207D07B684A4A934242
:1031400001D106230CE007230AE0052308E004234D
:1031500006E0032304E0022302E0012300E0002351
:103160007A6902F00302920093403A6913433B618B
:1031700037497B699B0802333A6941F823203B4B6E
:103180009B683B61FB68DB433A6913403B613B68EA
:103190005B6803F48013002B03D03A69FB68134388
:1031A0003B61324A3B699360304BDB683B61FB68B3
:1031B000DB433A6913403B613B685B6803F40013EF
:1031C000002B03D03A69FB6813433B61274A3B69F4
:1031D000D360264B5B683B61FB68DB433A69134075
:1031E0003B613B685B6803F40033002B03D03A6912
:1031F000FB6813433B611D4A3B6953601B4B1B68D3
:103200003B61FB68DB433A6913403B613B685B68A9
:1032100003F48033002B03D03A69FB6813433B610E
:10322000124A3B6913607B6901337B613B681A6812
:103230007B6922FA03F3002B7FF478AE00BF00BF56
:103240001C37BD465DF8047B704700BF001002408C
:10325000000001400004004800080048000C00483D
:103260000010004800140048001800480004014005
:1032700080B400AF044B1B6803F4C0631846BD461E
:103280005DF8047B704700BF0070004080B485B0DB
:1032900000AF78607B68B3F5007F30D1234B1B68AB
:1032A00003F4C063B3F5007F38D0204B1B6823F4D0
:1032B000C0631E4A43F4007313601D4B1B68322227
:1032C00002FB03F31B4AA2FB03239B0C0133FB60AD
:1032D00002E0FB68013BFB60144B5B6903F4806315
:1032E000B3F5806F02D1FB68002BF2D10F4B5B6905
:1032F00003F48063B3F5806F10D103230FE00B4B11
:103300001B6803F4C063B3F5806F07D0074B1B68DD
:1033100023F4C063054A43F4806313600023184616
:103320001437BD465DF8047B704700BF0070004055
:103330001800002083DE1B4380B588B000AF7860A2
:103340007B68002B01D10123D8E3974B9B6803F0E6
:103350000C03BB61944BDB6803F003037B617B6868
:103360001B6803F01003002B00F0E480BB69002B06
:1033700007D0BB690C2B40F08B807B69012B40F0A0
:103380008780894B1B6803F00203002B05D07B6804
:103390009B69002B01D10123B0E37B681A6A824B41
:1033A0001B6803F00803002B04D07F4B1B6803F05D
:1033B000F00305E07C4BD3F894301B0903F0F003D5
:1033C000934223D27B681B6A184600F043FD0346F4
:1033D000002B01D0012391E3734B1B68724A43F029
:1033E00008031360704B1B6823F0F0027B681B6AB4
:1033F0006D4913430B606C4B5B6823F47F427B6821
:10340000DB691B02684913434B6025E0664B1B6870
:10341000654A43F008031360634B1B6823F0F00216
:103420007B681B6A604913430B605F4B5B6823F446
:103430007F427B68DB691B025B4913434B60BB69BE
:10344000002B09D17B681B6A184600F003FD034678
:10345000002B01D0012351E300F038FC0246524B0F
:103460009B681B0903F00F035049CB5C03F01F035B
:1034700022FA03F34E4A13604E4B1B681846FEF7C0
:1034800097FF0346FB73FB7B002B52D0FB7B35E39E
:103490007B689B69002B32D0434B1B68424A43F048
:1034A00001031360FEF7D4FF386108E0FEF7D0FF98
:1034B00002463B69D31A022B01D903231EE33A4B80
:1034C0001B6803F00203002BF0D0374B1B68364A11
:1034D00043F008031360344B1B6823F0F0027B6851
:1034E0001B6A314913430B602F4B5B6823F47F4207
:1034F0007B68DB691B022C4913434B601AE02A4BA3
:103500001B68294A23F001031360FEF7A1FF38610D
:1035100008E0FEF79DFF02463B69D31A022B01D952
:103520000323EBE2204B1B6803F00203002BF0D1D6
:1035300000E000BF7B681B6803F00103002B74D020
:10354000BB69082B05D0BB690C2B0ED17B69032B03
:103550000BD1154B1B6803F40033002B64D07B6840
:103560005B68002B60D10123C8E27B685B68B3F520
:10357000803F06D10C4B1B680B4A43F48033136029
:1035800026E07B685B68B3F5A02F15D1064B1B685E
:10359000054A43F480231360034B1B68024A43F43B
:1035A0008033136014E000BF0010024050A90008EF
:1035B000180000201C000020A04B1B689F4A23F429
:1035C000803313609D4B1B689C4A23F48023136057
:1035D0007B685B68002B13D0FEF73AFF386108E088
:1035E000FEF736FF02463B69D31A642B01D9032349
:1035F00084E2924B1B6803F40033002BF0D014E0FC
:10360000FEF726FF386108E0FEF722FF02463B691D
:10361000D31A642B01D9032370E2884B1B6803F48F
:103620000033002BF0D100E000BF7B681B6803F083
:103630000203002B60D0BB69042B05D0BB690C2BA7
:1036400019D17B69022B16D17C4B1B6803F4806374
:10365000002B05D07B68DB68002B01D101234DE2F4
:10366000764B5B6823F0F8527B681B691B06734935
:1036700013434B6040E07B68DB68002B23D06F4B2B
:103680001B686E4A43F480731360FEF7E1FE3861F5
:1036900008E0FEF7DDFE02463B69D31A022B01D992
:1036A00003232BE2654B1B6803F48063002BF0D0EF
:1036B000624B5B6823F0F8527B681B691B065F490D
:1036C00013434B6018E05D4B1B685C4A23F4807326
:1036D0001360FEF7BDFE386108E0FEF7B9FE024652
:1036E0003B69D31A022B01D9032307E2534B1B6812
:1036F00003F48063002BF0D17B681B6803F00803A0
:10370000002B3CD07B685B69002B1CD04B4BD3F863
:1037100094304A4A43F00103C2F89430FEF798FE11
:10372000386108E0FEF794FE02463B69D31A022B8B
:1037300001D90323E2E1414BD3F8943003F00203B3
:10374000002BEFD01BE03D4BD3F894303B4A23F0E5
:103750000103C2F89430FEF77BFE386108E0FEF703
:1037600077FE02463B69D31A022B01D90323C5E138
:10377000324BD3F8943003F00203002BEFD17B6877
:103780001B6803F00403002B00F0A6800023FB77E6
:103790002A4B9B6D03F08053002B0DD1274B9B6D63
:1037A000264A43F080539365244B9B6D03F080536E
:1037B000BB60BB680123FB77214B1B6803F480735C
:1037C000002B18D11E4B1B681D4A43F480731360F5
:1037D000FEF73EFE386108E0FEF73AFE02463B691E
:1037E000D31A022B01D9032388E1154B1B6803F47C
:1037F0008073002BF0D07B689B68012B08D10F4BA6
:10380000D3F890300D4A43F00103C2F8903029E01C
:103810007B689B68052B15D1084BD3F89030074A7D
:1038200043F00403C2F89030044BD3F89030034ABD
:1038300043F00103C2F8903014E000BF00100240D2
:1038400000700040914BD3F89030904A23F0010370
:10385000C2F890308D4BD3F890308C4A23F004039B
:10386000C2F890307B689B68002B16D0FEF7F0FD05
:1038700038610AE0FEF7ECFD02463B69D31A41F2DB
:103880008832934201D9032338E1804BD3F890303A
:1038900003F00203002BEDD015E0FEF7D9FD3861EF
:1038A0000AE0FEF7D5FD02463B69D31A41F28832A1
:1038B000934201D9032321E1744BD3F8903003F0F4
:1038C0000203002BEDD1FB7F012B05D16F4B9B6DCC
:1038D0006E4A23F0805393657B689B6A002B00F04F
:1038E0000C817B689B6A022B40F0D480674BDB68BD
:1038F0007B617B6903F003027B68DB6A9A4230D10B
:103900007B6903F070027B681B6B013B1B019A42D1
:1039100027D17B6903F4FE427B685B6B1B029A42F2
:103920001FD17B6903F400337A68926B072A14BFB6
:1039300001220022D2B2934213D17B6903F4C00268
:103940007B68DB6B5B08013B5B059A4209D17B69B5
:1039500003F0C0627B681B6C5B08013B5B069A420C
:103960006ED0BB690C2B69D0484B1B6803F0806399
:10397000002B05D1454B1B6803F08053002B01D071
:103980000123BBE0414B1B68404A23F08073136066
:10399000FEF75EFD386108E0FEF75AFD02463B691E
:1039A000D31A022B01D90323A8E0384B1B6803F07C
:1039B0000073002BF0D1354BDA68354B13407A6831
:1039C000D16A7A68126B013A120111437A68526B1C
:1039D000120211437A68D26B5208013A5205114320
:1039E0007A68126C5208013A520611437A68926B57
:1039F000120952040A4325491343CB60234B1B6829
:103A0000224A43F080731360204BDB681F4A43F067
:103A10008073D360FEF71CFD386108E0FEF718FDE7
:103A200002463B69D31A022B01D9032366E0174BE8
:103A30001B6803F00073002BF0D05EE001235DE013
:103A4000124B1B6803F00073002B56D10F4B1B6801
:103A50000E4A43F0807313600C4BDB680B4A43F053
:103A60008073D360FEF7F4FC386108E0FEF7F0FCE9
:103A700002463B69D31A022B01D903233EE0034BD4
:103A80001B6803F00073002BF0D036E000100240FA
:103A90008C809DF9BB690C2B2DD01A4B1B68194AE1
:103AA00023F080731360174B1B6803F02053002B27
:103AB00005D1144BDB68134A23F00303D360114B89
:103AC000DB68104A23F0887323F48033D360FEF759
:103AD000BFFC386108E0FEF7BBFC02463B69D31A25
:103AE000022B01D9032309E0064B1B6803F0007386
:103AF000002BF0D101E0012300E00023184620371D
:103B0000BD4680BD0010024080B584B000AF786033
:103B100039607B68002B01D10123C8E0664B1B682C
:103B200003F007033A689A4210D9634B1B6823F0ED
:103B3000070261493B6813430B605F4B1B6803F04E
:103B400007033A689A4201D00123B0E07B681B6802
:103B500003F00103002B4CD07B685B68032B07D17B
:103B6000564B1B6803F00073002B21D101239EE00C
:103B70007B685B68022B07D1504B1B6803F4003352
:103B8000002B15D1012392E07B685B68002B07D1E5
:103B90004A4B1B6803F00203002B09D1012386E086
:103BA000464B1B6803F48063002B01D101237EE0A8
:103BB000424B9B6823F003027B685B683F491343D9
:103BC0008B60FEF745FCF8600AE0FEF741FC024618
:103BD000FB68D31A41F28832934201D9032366E08D
:103BE000364B9B6803F00C027B685B689B009A4233
:103BF000EBD17B681B6803F00203002B08D02F4B2E
:103C00009B6823F0F0027B689B682C4913438B6010
:103C1000294B1B6803F007033A689A4210D2264BDF
:103C20001B6823F0070224493B6813430B60224BB7
:103C30001B6803F007033A689A4201D0012336E07B
:103C40007B681B6803F00403002B08D01B4B9B68A8
:103C500023F4E0627B68DB68184913438B607B6860
:103C60001B6803F00803002B09D0144B9B6823F456
:103C700060527B681B69DB00104913438B6000F0C6
:103C800025F802460D4B9B681B0903F00F030C49F6
:103C9000CB5C03F01F0322FA03F30A4A13600A4BBA
:103CA0001B681846FEF784FB0346FB72FB7A184636
:103CB0001037BD4680BD00BF00200240001002400A
:103CC00050A90008180000201C00002080B489B012
:103CD00000AF0023FB610023BB613E4B9B6803F0F8
:103CE0000C033B613B4BDB6803F00303FB603B6968
:103CF000002B05D03B690C2B21D1FB68012B1ED179
:103D0000344B1B6803F00803002B07D1314BD3F869
:103D100094301B0A03F00F03FB6105E02D4B1B6879
:103D20001B0903F00F03FB612B4AFB6952F8233098
:103D3000FB613B69002B0DD1FB69BB610AE03B696C
:103D4000042B02D1254BBB6104E03B69082B01D158
:103D5000234BBB613B690C2B34D11E4BDB6803F05A
:103D60000303BB60BB68022B03D0BB68032B03D0EB
:103D700005E01A4B7B6105E0194B7B6102E0FB69B2
:103D80007B6100BF134BDB681B0903F007030133A2
:103D90007B60104BDB681B0A03F07F037A6903FB2F
:103DA00002F27B68B2FBF3F37B610A4BDB685B0ECC
:103DB00003F0030301335B003B607A693B68B2FBAD
:103DC000F3F3BB61BB6918462437BD465DF8047B3D
:103DD000704700BF0010024068A900080024F400EA
:103DE00000127A0080B400AF034B1B681846BD4632
:103DF0005DF8047B704700BF1800002080B500AF5D
:103E0000FFF7F0FF0246064B9B681B0A03F007030F
:103E10000449CB5C03F01F0322FA03F3184680BD6C
:103E20000010024060A9000880B500AFFFF7DAFF7C
:103E30000246064B9B68DB0A03F007030449CB5C90
:103E400003F01F0322FA03F3184680BD001002405E
:103E500060A9000880B586B000AF786000233B61A0
:103E60002A4B9B6D03F08053002B03D0FFF700FA21
:103E7000786114E0254B9B6D244A43F08053936591
:103E8000224B9B6D03F08053FB60FB68FFF7F0F95A
:103E900078611E4B9B6D1D4A23F0805393657B69AF
:103EA000B3F5007F0BD17B68802B19D97B68A02BE1
:103EB00002D902233B6113E001233B6110E07B68E0
:103EC000802B02D903233B610AE07B68802B02D15F
:103ED00002233B6104E07B68702B01D101233B612D
:103EE0000B4B1B6823F0070209493B6913430B6026
:103EF000074B1B6803F007033A699A4201D001237C
:103F000000E0002318461837BD4680BD001002406F
:103F10000020024080B586B000AF78600023FB74BB
:103F20000023BB747B681B6803F40063002B41D043
:103F30007B685B6EB3F5400F2AD0B3F5400F24D8F1
:103F4000B3F5000F08D0B3F5000F1ED8002B0AD030
:103F5000B3F5800F10D018E0864BDB68854A43F438
:103F60008033D36015E07B6804330021184600F0ED
:103F7000BBFA0346FB740CE07B6820330021184633
:103F800000F0A6FB0346FB7403E00123FB7400E092
:103F900000BFFB7C002B0BD1764BD3F8883023F489
:103FA00040027B685B6E73491343C1F8883001E0BF
:103FB000FB7CBB747B681B6803F48053002B41D0EF
:103FC0007B689B6EB3F1407F2AD0B3F1407F24D849
:103FD000B3F1007F08D0B3F1007F1ED8002B0AD0C8
:103FE000B3F1807F10D018E0624BDB68614A43F484
:103FF0008033D36015E07B6804330021184600F05D
:1040000073FA0346FB740CE07B68203300211846EA
:1040100000F05EFB0346FB7403E00123FB7400E049
:1040200000BFFB7C002B0BD1524BD3F8883023F020
:1040300040727B689B6E4F491343C1F8883001E0A2
:10404000FB7CBB747B681B6803F40033002B00F01F
:10405000A08000237B74474B9B6D03F08053002BA3
:1040600001D1012300E00023002B0DD0414B9B6DBB
:10407000404A43F0805393653E4B9B6D03F0805361
:10408000BB60BB6801237B743B4B1B683A4A43F41B
:1040900080731360FEF7DCF9F86009E0FEF7D8F9E9
:1040A0000246FB68D31A022B02D90323FB7405E0F6
:1040B000314B1B6803F48073002BEFD0FB7C002B8B
:1040C0005CD12C4BD3F8903003F440737B617B6957
:1040D000002B1FD07B68D3F884307A699A4219D0BC
:1040E000244BD3F8903023F440737B61214BD3F8F9
:1040F0009030204A43F48033C2F890301D4BD3F8FF
:1041000090301C4A23F48033C2F89030194A7B69FE
:10411000C2F890307B6903F00103002B16D0FEF744
:1041200097F9F8600BE0FEF793F90246FB68D31AA3
:1041300041F28832934202D90323FB7406E00D4B0F
:10414000D3F8903003F00203002BECD0FB7C002B63
:104150000CD1084BD3F8903023F440727B68D3F82D
:10416000843004491343C1F8903009E0FB7CBB74F0
:1041700006E000BF0010024000700040FB7CBB74F2
:104180007B7C012B05D19E4B9B6D9D4A23F0805378
:1041900093657B681B6803F00103002B0AD0984BE2
:1041A000D3F8883023F003027B689B6B9449134358
:1041B000C1F888307B681B6803F00203002B0AD02B
:1041C0008F4BD3F8883023F00C027B68DB6B8C4973
:1041D0001343C1F888307B681B6803F00403002B8D
:1041E0000AD0874BD3F8883023F030027B681B6CF1
:1041F00083491343C1F888307B681B6803F00803C8
:10420000002B0AD07E4BD3F8883023F0C0027B68A5
:104210005B6C7B491343C1F888307B681B6803F0F3
:104220001003002B0AD0764BD3F8883023F4407269
:104230007B689B6C72491343C1F888307B681B68AC
:1042400003F02003002B0AD06D4BD3F8883023F401
:1042500040627B68DB6C6A491343C1F888307B6835
:104260001B6803F40073002B0AD0654BD3F8883029
:1042700023F440227B68DB6D61491343C1F8883029
:104280007B681B6803F48063002B0AD05C4BD3F877
:10429000883023F440127B681B6E59491343C1F8E0
:1042A00088307B681B6803F04003002B0AD0544B16
:1042B000D3F8883023F440527B681B6D5049134378
:1042C000C1F888307B681B6803F08003002B0AD09C
:1042D0004B4BD3F8883023F440427B685B6D4849F0
:1042E0001343C1F888307B681B6803F48073002B8C
:1042F0000AD0434BD3F8883023F440327B689B6D5F
:104300003F491343C1F888307B681B6803F40053AE
:10431000002B28D03A4BD3F8883023F040627B68DA
:10432000DB6E37491343C1F888307B68DB6EB3F12D
:10433000006F06D1324BDB68314A43F48013D360FF
:1043400011E07B68DB6EB3F1806F0CD17B680433C6
:104350000121184600F0C8F80346FB74FB7C002BD3
:1043600001D0FB7CBB747B681B6803F40023002B2B
:1043700028D0234BD3F8883023F040627B681B6F32
:104380001F491343C1F888307B681B6FB3F1006F7E
:1043900006D11B4BDB681A4A43F48013D36011E04B
:1043A0007B681B6FB3F1806F0CD17B6804330121F4
:1043B000184600F099F80346FB74FB7C002B01D0F3
:1043C000FB7CBB747B681B6803F48023002B2BD021
:1043D0000B4BD3F8883023F040627B685B6F084951
:1043E0001343C1F888307B685B6FB3F1006F09D16C
:1043F000034BDB68024A43F48013D36014E000BF30
:10440000001002407B685B6FB3F1806F0CD17B685A
:1044100004330121184600F067F80346FB74FB7C67
:10442000002B01D0FB7CBB747B681B6803F48043CA
:10443000002B2FD02B4BD3F8883023F040527B68D1
:104440009B6F28491343C1F888307B689B6FB3F199
:10445000805F0DD17B6804330221184600F044F8D8
:104460000346FB74FB7C002B14D0FB7CBB7411E077
:104470007B689B6FB3F1005F0CD17B682033022116
:10448000184600F025F90346FB74FB7C002B01D095
:10449000FB7CBB747B681B6803F40043002B0AD0D1
:1044A000104BD3F8883023F080427B68DB6F0D49D6
:1044B0001343C1F888307B681B6803F48033002BFA
:1044C0000BD0084BD3F8883023F000427B68D3F838
:1044D000803004491343C1F88830BB7C1846183734
:1044E000BD4680BD0010024080B584B000AF78604A
:1044F00039600023FB73754BDB6803F00303002B6B
:1045000018D0724BDB6803F003027B681B689A4289
:104510000DD17B681B68002B09D06C4BDB681B0935
:1045200003F007035A1C7B685B689A4247D001235B
:10453000FB7344E07B681B68032B18D0032B25D842
:10454000012B02D0022B09D020E0604B1B6803F046
:104550000203002B1DD10123FB731AE05B4B1B6888
:1045600003F48063002B16D10123FB7313E0574B38
:104570001B6803F40033002B0FD1544B1B6803F46A
:104580008023002B09D10123FB7306E00123FB7379
:1045900004E000BF02E000BF00E000BFFB7B002B97
:1045A0000DD14A4BDB6823F073027B6819687B6886
:1045B0005B68013B1B010B4344491343CB60FB7B0E
:1045C000002B7DD1414B1B68404A23F08063136070
:1045D000FDF73EFFB86009E0FDF73AFF0246BB6811
:1045E000D31A022B02D90323FB7305E0374B1B6858
:1045F00003F00063002BEFD1FB7B002B60D13B6805
:10460000002B11D1314B1B6923F41F3323F440736A
:104610007A68926811027A68D268120952040A43D1
:104620002A4913430B6127E03B68012B12D1274B2A
:104630001B6923F4C00323F4FE437A6892681102D5
:104640007A6812695208013A52050A431F49134316
:104650000B6111E01D4B1B6923F0C06323F4FE4383
:104660007A68926811027A6852695208013A5206D1
:104670000A43164913430B61144B1B68134A43F05A
:1046800080631360FDF7E4FEB86009E0FDF7E0FE2B
:104690000246BB68D31A022B02D90323FB7305E041
:1046A0000A4B1B6803F00063002BEFD0FB7B002B51
:1046B00006D1064B1A697B689B69044913430B6159
:1046C000FB7B18461037BD4680BD00BF001002407E
:1046D00080B584B000AF786039600023FB736A4B0B
:1046E000DB6803F00303002B18D0674BDB6803F093
:1046F00003027B681B689A420DD17B681B68002B04
:1047000009D0614BDB681B0903F007035A1C7B6867
:104710005B689A4247D00123FB7344E07B681B68C7
:10472000032B18D0032B25D8012B02D0022B09D044
:1047300020E0554B1B6803F00203002B1DD1012321
:10474000FB731AE0504B1B6803F48063002B16D1F7
:104750000123FB7313E04C4B1B6803F40033002B65
:104760000FD1494B1B6803F48023002B09D101238F
:10477000FB7306E00123FB7304E000BF02E000BF0F
:1047800000E000BFFB7B002B0DD13F4BDB6823F02B
:1047900073027B6819687B685B68013B1B010B43F4
:1047A00039491343CB60FB7B002B67D1364B1B6829
:1047B000354A23F080531360FDF74AFEB86009E0E4
:1047C000FDF746FE0246BB68D31A022B02D903232B
:1047D000FB7305E02C4B1B6803F00053002BEFD15B
:1047E000FB7B002B4AD13B68002B11D1264B5B6928
:1047F00023F41F3323F440737A68926811027A68B5
:10480000D268120952040A431F4913434B6111E055
:104810001D4B5B6923F0C06323F4FE437A68926802
:1048200011027A6812695208013A52060A4316497F
:1048300013434B61144B1B68134A43F080531360BE
:10484000FDF706FEB86009E0FDF702FE0246BB6810
:10485000D31A022B02D90323FB7305E00A4B1B6812
:1048600003F00053002BEFD0FB7B002B06D1064B4F
:104870005A697B685B69044913434B61FB7B1846AB
:104880001037BD4680BD00BF0010024080B582B029
:1048900000AF78607B68002B01D1012340E07B688A
:1048A0009B6F002B06D17B68002283F87420786808
:1048B000FDF7A6FB7B6824229A677B681B681A6851
:1048C0007B681B6822F001021A60786800F0CAFB5E
:1048D0000346012B01D1012322E07B685B6A002B98
:1048E00002D0786800F076FE7B681B685A687B68A7
:1048F0001B6822F490425A607B681B689A687B6848
:104900001B6822F02A029A607B681B681A687B6821
:104910001B6842F001021A60786800F0FDFE034651
:1049200018460837BD4680BD80B58AB002AFF86032
:10493000B9603B601346FB80FB689B6F202B40F007
:104940008280BB68002B02D0FB88002B01D10123A1
:104950007AE0FB6893F87430012B01D1022373E0F5
:10496000FB68012283F87420FB680022C3F88020D2
:10497000FB6821229A67FDF76BFD7861FB68FA8876
:10498000A3F85020FB68FA88A3F85220FB689B68C4
:10499000B3F5805F08D1FB681B69002B04D10023AD
:1049A000FB61BB68BB6103E0BB68FB610023BB61CB
:1049B000FB68002283F874202DE03B6800937B693C
:1049C00000228021F86800F0F0FE0346002B01D0A1
:1049D000032339E0FB69002B0BD1BB691A88FB6804
:1049E0001B68C2F3080292B21A85BB690233BB612D
:1049F00008E0FB691A78FB681B6892B21A85FB69AC
:104A00000133FB61FB68B3F852309BB2013B9AB2B1
:104A1000FB68A3F85220FB68B3F852309BB2002B1E
:104A2000CBD13B6800937B6900224021F86800F0FD
:104A3000BCFE0346002B01D0032305E0FB682022C7
:104A40009A67002300E0022318462037BD4680BD48
:104A500080B5BAB000AF78607B681B68DB69C7F8C7
:104A6000E4307B681B681B68C7F8E0307B681B6814
:104A70009B68C7F8DC30D7F8E42040F60F031340FA
:104A8000C7F8D830D7F8D830002B15D1D7F8E43094
:104A900003F02003002B0FD0D7F8E03003F0200301
:104AA000002B09D07B685B6E002B00F0A6827B6830
:104AB0005B6E78689847A0E2D7F8D830002B00F0FA
:104AC0001781D7F8DC3003F00103002B06D1D7F8AB
:104AD000E020854B1340002B00F00A81D7F8E4302A
:104AE00003F00103002B11D0D7F8E03003F48073FA
:104AF000002B0BD07B681B6801221A627B68D3F8FD
:104B0000803043F001027B68C3F88020D7F8E4309E
:104B100003F00203002B11D0D7F8DC3003F00103BF
:104B2000002B0BD07B681B6802221A627B68D3F8CB
:104B3000803043F004027B68C3F88020D7F8E4306B
:104B400003F00403002B11D0D7F8DC3003F001038D
:104B5000002B0BD07B681B6804221A627B68D3F899
:104B6000803043F002027B68C3F88020D7F8E4303D
:104B700003F00803002B17D0D7F8E03003F0200330
:104B8000002B05D1D7F8DC3003F00103002B0BD04C
:104B90007B681B6808221A627B68D3F8803043F078
:104BA00008027B68C3F88020D7F8E43003F4006380
:104BB000002B12D0D7F8E03003F08063002B0CD02C
:104BC0007B681B684FF400621A627B68D3F8803000
:104BD00043F020027B68C3F880207B68D3F88030E4
:104BE000002B00F00C82D7F8E43003F02003002BF8
:104BF0000DD0D7F8E03003F02003002B07D07B68FE
:104C00005B6E002B03D07B685B6E786898477B688F
:104C1000D3F88030C7F8D4307B681B689B6803F0FA
:104C20004003402B05D0D7F8D43003F02803002BE5
:104C30004FD0786800F04AFF7B681B689B6803F0E0
:104C40004003402B41D17B681B680833C7F89C3078
:104C5000D7F89C3053E8003FC7F89830D7F8983021
:104C600023F04003C7F8D0307B681B680833D7F8BF
:104C7000D020C7F8A820C7F8A430D7F8A410D7F8D8
:104C8000A82041E80023C7F8A030D7F8A030002BB7
:104C9000D9D17B681B6F002B13D07B681B6F134A25
:104CA0009A637B681B6F1846FEF718F80346002BC3
:104CB00017D07B681B6F9B6B7A68126F1046984702
:104CC0000FE0786800F0C4F90BE0786800F0C0F9F4
:104CD00007E0786800F0BCF97B680022C3F8802008
:104CE0008DE100BF8BE100BF200100046B5D000877
:104CF0007B681B6E012B40F04681D7F8E43003F04F
:104D00001003002B00F03F81D7F8E03003F01003D0
:104D1000002B00F038817B681B6810221A627B68C8
:104D20001B689B6803F04003402B40F0B4807B6815
:104D30001B6F1B685B68A7F8BE30B7F8BE30002B4E
:104D400000F05F817B68B3F85830B7F8BE209A4214
:104D500080F057817B68B7F8BE20A3F85A207B68A3
:104D60001B6F1B681B6803F02003002B40F085803D
:104D70007B681B68C7F88830D7F8883053E8003F55
:104D8000C7F88430D7F8843023F48073C7F8B8307C
:104D90007B681B681A46D7F8B830C7F89430C7F854
:104DA0009020D7F89010D7F8942041E80023C7F856
:104DB0008C30D7F88C30002BDAD17B681B68083335
:104DC0007B677B6F53E8003F3B673B6F23F001033A
:104DD000C7F8B4307B681B680833D7F8B420C7F82D
:104DE0008020FB67F96FD7F8802041E80023BB677C
:104DF000BB6F002BE1D17B681B6808333B663B6EC1
:104E000053E8003FFB65FB6D23F04003C7F8B0306B
:104E10007B681B680833D7F8B020FA66BB66B96EAA
:104E2000FA6E41E800237B667B6E002BE3D17B6842
:104E30002022DA677B6800221A667B681B68FB64A5
:104E4000FB6C53E8003FBB64BB6C23F01003C7F856
:104E5000AC307B681B681A46D7F8AC30BB657A6506
:104E6000796DBA6D41E800233B653B6D002BE4D1C1
:104E70007B681B6F1846FDF7F3FE7B68B3F858207C
:104E80007B68B3F85A309BB2D31A9BB21946786844
:104E9000FCF744FAB5E07B68B3F858207B68B3F8B8
:104EA0005A309BB2D31AA7F8CE307B68B3F85A3089
:104EB0009BB2002B00F0A780B7F8CE30002B00F09B
:104EC000A2807B681B68BB63BB6B53E8003F7B63BE
:104ED0007B6B23F49073C7F8C8307B681B681A4655
:104EE000D7F8C8307B643A64396C7A6C41E80023A7
:104EF000FB63FB6B002BE4D17B681B6808337B6290
:104F00007B6A53E8003F3B623B6A23F00103C7F82A
:104F1000C4307B681B680833D7F8C4203A63FB624F
:104F2000F96A3A6B41E80023BB62BB6A002BE3D10C
:104F30007B682022DA677B6800221A667B68002281
:104F40005A667B681B683B613B6953E8003FFB6026
:104F5000FB6823F01003C7F8C0307B681B681A4653
:104F6000D7F8C030FB61BA61B969FA6941E800233A
:104F70007B617B69002BE4D1B7F8CE3019467868A5
:104F8000FCF7CCF93FE0D7F8E43003F48013002BB2
:104F90000ED0D7F8DC3003F48003002B08D07B68F8
:104FA0001B684FF480121A62786800F01EFF2DE033
:104FB000D7F8E43003F08003002B0ED0D7F8E030B0
:104FC00003F08003002B08D07B689B6E002B1CD065
:104FD0007B689B6E7868984717E0D7F8E43003F059
:104FE0004003002B12D0D7F8E03003F04003002B31
:104FF0000CD0786800F0CFFE08E000BF06E000BFEC
:1050000004E000BF02E000BF00E000BFE837BD469B
:1050100080BD00BF80B483B000AF786000BF0C37A4
:10502000BD465DF8047B704780B483B000AF786004
:1050300000BF0C37BD465DF8047B704780B483B079
:1050400000AF786000BF0C37BD465DF8047B704749
:1050500080B483B000AF786000BF0C37BD465DF808
:10506000047B70472DE9B04F8AB000AFF860002391
:1050700087F82230FB689A68FB681B691A43FB6853
:105080005B691A43FB68DB6913437B62FB681B683F
:105090001A68A44B1340FA681268796A0B431360CC
:1050A000FB681B685B6823F44051FB68DA68FB68A7
:1050B0001B680A435A60FB689B697B62FB681B683C
:1050C000994A934204D0FB681B6A7A6A13437B6255
:1050D000FB681B689B6823F43061FB681B687A6A75
:1050E0000A439A60FB681B68904A934226D1904B12
:1050F000D3F8883003F00303032B1BD801A252F826
:1051000023F000BF15510008255100081D5100086B
:105110002D510008012387F8233016E1022387F878
:10512000233012E1042387F823300EE1082387F8A7
:1051300023300AE1102387F8233006E1FB681B685F
:105140007C4A934238D17A4BD3F8883003F00C0371
:105150000C2B2DD801A252F823F000BF915100086A
:10516000B1510008B1510008B1510008A151000827
:10517000B1510008B1510008B1510008995100081F
:10518000B1510008B1510008B1510008A9510008FF
:10519000002387F82330D8E0022387F82330D4E0B7
:1051A000042387F82330D0E0082387F82330CCE0AD
:1051B000102387F82330C8E0FB681B685E4A9342DF
:1051C00025D15B4BD3F8883003F03003302B16D059
:1051D000302B18D8202B0AD0202B14D8002B02D02B
:1051E000102B08D00FE0002387F82330ADE0022316
:1051F00087F82330A9E0042387F82330A5E00823AB
:1052000087F82330A1E0102387F823309DE0FB6866
:105210001B684A4A934225D1454BD3F8883003F0A6
:10522000C003C02B16D0C02B18D8802B0AD0802BDF
:1052300014D8002B02D0402B08D00FE0002387F8B1
:10524000233082E0022387F823307EE0042387F8AE
:1052500023307AE0082387F8233076E0102387F89C
:10526000233072E0FB681B68354A93422AD1304BE9
:10527000D3F8883003F44073B3F5407F1AD0B3F508
:10528000407F1BD8B3F5007F0CD0B3F5007F15D855
:10529000002B03D0B3F5807F08D00FE0002387F800
:1052A000233052E0022387F823304EE0042387F8AE
:1052B00023304AE0082387F8233046E0102387F89C
:1052C000233042E0FB681B68174A93423AD1184BDF
:1052D000D3F8883003F44063B3F5406F1AD0B3F5C8
:1052E000406F1BD8B3F5006F0CD0B3F5006F15D825
:1052F000002B03D0B3F5806F08D00FE0002387F8B0
:10530000233022E0022387F823301EE0042387F8AD
:1053100023301AE0082387F8233016E0102387F89B
:10532000233012E0F369FFEF0080004000380140B5
:10533000001002400044004000480040004C004083
:1053400000500040102387F82330FB681B689F4AF9
:1053500093427AD197F82330082B24D801A252F82F
:1053600023F000BF89530008A75300089153000899
:10537000A753000897530008A7530008A753000835
:10538000A75300089F530008FEF738FDF86110E0AE
:105390008F4BFB610DE0FEF799FCF86109E04FF4DB
:1053A0000043FB6105E00023FB61012387F8223005
:1053B00000BFFB69002B00F0FB80FB685A681346B6
:1053C0005B001344FA699A4205D3FB685B681B03D0
:1053D000FA699A4203D9012387F82230E8E0FB6991
:1053E00000221C4615464FF000024FF000032B022E
:1053F00043EA14632202F968496849080020884694
:10540000814612EB080A43EB090BFB685B6800223C
:105410003B607A60D7E9002350465946FBF792FD7E
:1054200002460B461346BB61BB69B3F5407F08D308
:10543000BB69B3F5801F04D2FB681B68BA69DA60E8
:10544000B6E0012387F82230B2E0FB68DB69B3F5F0
:10545000004F5ED197F82330082B28D801A252F8CC
:1054600023F000BF895400089154000899540008A3
:10547000AF5400089F540008AF540008AF54000810
:10548000AF540008A7540008FEF7B8FCF86114E018
:10549000FEF7CAFCF86110E04D4BFB610DE0FEF732
:1054A00015FCF86109E04FF40043FB6105E00023BF
:1054B000FB61012387F8223000BFFB69002B77D006
:1054C000FB695A00FB685B685B081A44FB685B6811
:1054D000B2FBF3F3BB61BB690F2B16D9BB69B3F504
:1054E000803F12D2BB699BB223F00F03FB82BB69E2
:1054F0005B089BB203F007039AB2FB8A1343FB825B
:10550000FB681B68FA8ADA6052E0012387F82230D0
:105510004EE097F82330082B27D801A252F823F049
:10552000455500084D550008555500086B550008B5
:105530005B5500086B5500086B5500086B5500085B
:1055400063550008FEF75AFCF86114E0FEF76CFCA6
:10555000F86110E01E4BFB610DE0FEF7B7FBF86150
:1055600009E04FF40043FB6105E00023FB610123E8
:1055700087F8223000BFFB69002B19D0FB685B68FD
:105580005A08FB691A44FB685B68B2FBF3F3BB6122
:10559000BB690F2B09D9BB69B3F5803F05D2BB6945
:1055A0009AB2FB681B68DA6002E0012387F82230B8
:1055B000FB6800225A66FB6800229A6697F8223040
:1055C00018462837BD46BDE8B08F00BF00800040B8
:1055D0000024F40080B483B000AF78607B685B6A1D
:1055E00003F00103002B0AD07B681B685B6823F47F
:1055F00000317B689A6A7B681B680A435A607B6843
:105600005B6A03F00203002B0AD07B681B685B68AF
:1056100023F480317B68DA6A7B681B680A435A602E
:105620007B685B6A03F00403002B0AD07B681B686D
:105630005B6823F480217B681A6B7B681B680A43D4
:105640005A607B685B6A03F00803002B0AD07B6812
:105650001B685B6823F400417B685A6B7B681B689E
:105660000A435A607B685B6A03F01003002B0AD080
:105670007B681B689B6823F480517B689A6B7B680E
:105680001B680A439A607B685B6A03F02003002B67
:105690000AD07B681B689B6823F400517B68DA6B37
:1056A0007B681B680A439A607B685B6A03F040036F
:1056B000002B1AD07B681B685B6823F480117B6821
:1056C0001A6C7B681B680A435A607B681B6CB3F5D5
:1056D000801F0AD17B681B685B6823F4C0017B686C
:1056E0005A6C7B681B680A435A607B685B6A03F0EC
:1056F0008003002B0AD07B681B685B6823F40021C1
:105700007B689A6C7B681B680A435A6000BF0C3741
:10571000BD465DF8047B704780B586B002AF786007
:105720007B680022C3F88020FCF792FEF8607B685B
:105730001B681B6803F00803082B0ED16FF07E4333
:105740000093FB6800224FF40011786800F02DF8F8
:105750000346002B01D0032323E07B681B681B68F2
:1057600003F00403042B0ED16FF07E430093FB681B
:1057700000224FF48001786800F017F80346002BF0
:1057800001D003230DE07B6820229A677B682022EA
:10579000DA677B6800221A667B68002283F874202F
:1057A000002318461037BD4680BD80B59CB000AFC1
:1057B000F860B9603B601346FB71A5E0BB6FB3F1C5
:1057C000FF3F00F0A180FCF743FE02463B68D31A7E
:1057D000BA6F9A4202D3BB6F002B3ED1FB681B68A5
:1057E0003B653B6D53E8003FFB64FB6C23F4D073D7
:1057F0007B66FB681B681A467B6EFB65BA65B96DF4
:10580000FA6D41E800237B657B6D002BE6D1FB68D8
:105810001B680833FB63FB6B53E8003FBB63BB6B48
:1058200023F001033B66FB681B6808333A6EBA64D9
:105830007B64796CBA6C41E800233B643B6C002BC1
:10584000E5D1FB6820229A67FB682022DA67FB68B3
:10585000002283F87420032367E0FB681B681B6841
:1058600003F00403002B4FD0FB681B68DB6903F4D3
:105870000063B3F5006F47D1FB681B684FF400620B
:105880001A62FB681B68BB62BB6A53E8003F7B621D
:105890007B6A23F4D073FB66FB681B681A46FB6EB9
:1058A0007B633A63396B7A6B41E80023FB62FB6AE6
:1058B000002BE6D1FB681B6808337B617B6953E8EA
:1058C000003F3B613B6923F00103BB66FB681B683B
:1058D0000833BA6E3A62FB61F9693A6A41E800231B
:1058E000BB61BB69002BE5D1FB6820229A67FB688E
:1058F0002022DA67FB682022C3F88020FB680022A0
:1059000083F87420032310E0FB681B68DA69BB6826
:105910001340BA689A420CBF01230023DBB21A4637
:10592000FB799A423FF44AAF002318467037BD46D0
:1059300080BD000080B596B000AFF860B960134636
:10594000FB80FB68BA685A65FB68FA88A3F85820A0
:10595000FB680022C3F88020FB682222DA67FB681C
:105960001B6F002B2BD0FB681B6F424ADA62FB686F
:105970001B6F414A1A63FB681B6F404A5A63FB68FE
:105980001B6F00229A63FB68186FFB681B68243347
:105990001946FB685B6D1A46FB88FDF701F9034663
:1059A000002B0CD0FB681022C3F88020FB6800227B
:1059B00083F87420FB682022DA67012355E0FB6836
:1059C000002283F87420FB681B69002B18D0FB6849
:1059D0001B68FB63FB6B53E8003FBB63BB6B43F48B
:1059E00080737B65FB681B681A467B6DBB647A64B9
:1059F000796CBA6C41E800233B643B6C002BE6D128
:105A0000FB681B680833BB62BB6A53E8003F7B62DC
:105A10007B6A43F001033B65FB681B6808333A6D02
:105A20007A633B63396B7A6B41E80023FB62FB6A64
:105A3000002BE5D1FB681B6808337B617B6953E869
:105A4000003F3B613B6943F04003FB64FB681B681C
:105A50000833FA6C3A62FB61F9693A6A41E800235B
:105A6000BB61BB69002BE5D1002318465837BD4602
:105A700080BD00BF935B0008B75C0008EF5C0008C6
:105A800080B489B000AF78607B681B68FB60FB68FE
:105A900053E8003FBB60BB6823F0C003FB617B6839
:105AA0001B681A46FB69BB617A617969BA6941E88A
:105AB00000233B613B69002BE6D17B6820229A677B
:105AC00000BF2437BD465DF8047B704780B495B0B5
:105AD00000AF78607B681B687B637B6B53E8003F9B
